{
  "contractName": "Matrix",
  "abi": [
    {
      "inputs": [],
      "stateMutability": "nonpayable",
      "type": "constructor"
    },
    {
      "inputs": [],
      "name": "getMatrix",
      "outputs": [
        {
          "internalType": "uint8[100][100]",
          "name": "",
          "type": "uint8[100][100]"
        }
      ],
      "stateMutability": "view",
      "type": "function",
      "constant": true
    },
    {
      "inputs": [
        {
          "internalType": "uint8",
          "name": "x",
          "type": "uint8"
        },
        {
          "internalType": "uint8",
          "name": "y",
          "type": "uint8"
        },
        {
          "internalType": "uint8",
          "name": "newValue",
          "type": "uint8"
        }
      ],
      "name": "setMatrixNumber",
      "outputs": [],
      "stateMutability": "nonpayable",
      "type": "function"
    }
  ],
  "bytecode": "0x608060405234801561001057600080fd5b5060005b606460ff168160ff1610156100ad5760005b606460ff168160ff161015610099576000808360ff166064811061004d5761004c6100b3565b5b600402018260ff1660648110610066576100656100b3565b5b602091828204019190066101000a81548160ff021916908360ff16021790555080806100919061011e565b915050610026565b5080806100a59061011e565b915050610014565b50610147565b7f4e487b7100000000000000000000000000000000000000000000000000000000600052603260045260246000fd5b7f4e487b7100000000000000000000000000000000000000000000000000000000600052601160045260246000fd5b600060ff82169050919050565b600061012982610111565b915060ff820361013c5761013b6100e2565b5b600182019050919050565b610551806101566000396000f3fe608060405234801561001057600080fd5b50600436106100365760003560e01c80635ad3a0a81461003b578063dc3ff77814610059575b600080fd5b610043610075565b60405161005091906103ce565b60405180910390f35b610073600480360381019061006e919061041c565b61011e565b005b61007d610228565b6000606480602002604051908101604052809291906000905b8282101561011557838260040201606480602002604051908101604052809291908260648015610101576020028201916000905b82829054906101000a900460ff1660ff16815260200190600101906020826000010492830192600103820291508084116100ca5790505b505050505081526020019060010190610096565b50505050905090565b606460ff168360ff1611158015610139575060008260ff1610155b610178576040517f08c379a000000000000000000000000000000000000000000000000000000000815260040161016f906104cc565b60405180910390fd5b606460ff168360ff1611158015610193575060008360ff1610155b6101d2576040517f08c379a00000000000000000000000000000000000000000000000000000000081526004016101c9906104cc565b60405180910390fd5b8060008460ff16606481106101ea576101e96104ec565b5b600402018360ff1660648110610203576102026104ec565b5b602091828204019190066101000a81548160ff021916908360ff160217905550505050565b60405180610c8001604052806064905b610240610256565b8152602001906001900390816102385790505090565b60405180610c800160405280606490602082028036833780820191505090505090565b600060649050919050565b600081905092915050565b6000819050919050565b600060649050919050565b600081905092915050565b6000819050919050565b600060ff82169050919050565b6102cf816102b9565b82525050565b60006102e183836102c6565b60208301905092915050565b6000602082019050919050565b61030381610299565b61030d81846102a4565b9250610318826102af565b8060005b8381101561034957815161033087826102d5565b965061033b836102ed565b92505060018101905061031c565b505050505050565b600061035d83836102fa565b610c808301905092915050565b6000602082019050919050565b61038081610279565b61038a8184610284565b92506103958261028f565b8060005b838110156103c65781516103ad8782610351565b96506103b88361036a565b925050600181019050610399565b505050505050565b60006204e200820190506103e56000830184610377565b92915050565b600080fd5b6103f9816102b9565b811461040457600080fd5b50565b600081359050610416816103f0565b92915050565b600080600060608486031215610435576104346103eb565b5b600061044386828701610407565b935050602061045486828701610407565b925050604061046586828701610407565b9150509250925092565b600082825260208201905092915050565b7f4d41545249583a204f7574206f6620626f756e64730000000000000000000000600082015250565b60006104b660158361046f565b91506104c182610480565b602082019050919050565b600060208201905081810360008301526104e5816104a9565b9050919050565b7f4e487b7100000000000000000000000000000000000000000000000000000000600052603260045260246000fdfea2646970667358221220490d5495b825afea252449ab72e96a38f44645c0275a4dfa1dc6c13382e4077964736f6c634300080d0033",
  "immutableReferences": {},
  "source": "//SPDX-License-Identifier: MIT\npragma solidity ^0.8.0;\n \ncontract Matrix {\n    uint8 private constant SIZE = 100; \n    uint8[SIZE][SIZE] private matrix;\n    // mapping(uint256 => uint256) public colours;\n    // mapping(bytes32 => bytes32) public colours;\n \n    constructor() {\n        for(uint8 i = 0; i < SIZE; i++){\n            for(uint8 j = 0; j < SIZE; j++){\n                matrix[i][j] = 0;\n            }\n        }\n    }\n \n    function getMatrix() external view returns(uint8[SIZE][SIZE] memory){\n        return matrix;\n    }\n \n    function setMatrixNumber(uint8 x, uint8 y, uint8 newValue) external {\n        require(x <= SIZE && y >= 0, \"MATRIX: Out of bounds\");\n        require(x <= SIZE && x >= 0, \"MATRIX: Out of bounds\");\n        matrix[x][y] = newValue;\n    }\n}\n",
  "sourcePath": "/Users/ferrancasals/Git/web3-place/truffle/contracts/matrix.sol",
  "compiler": {
    "name": "solc",
    "version": "0.8.13+commit.abaa5c0e.Emscripten.clang"
  },
  "schemaVersion": "3.4.6",
  "updatedAt": "2022-05-02T07:33:00.570Z",
  "networkType": "ethereum",
  "devdoc": {
    "kind": "dev",
    "methods": {},
    "version": 1
  },
  "userdoc": {
    "kind": "user",
    "methods": {},
    "version": 1
  }
}