{
  "contractName": "Matrix",
  "abi": [
    {
      "inputs": [],
      "stateMutability": "nonpayable",
      "type": "constructor"
    },
    {
      "inputs": [],
      "name": "getMatrix",
      "outputs": [
        {
          "internalType": "string[20][20]",
          "name": "",
          "type": "string[20][20]"
        }
      ],
      "stateMutability": "view",
      "type": "function",
      "constant": true
    },
    {
      "inputs": [
        {
          "internalType": "uint8",
          "name": "x",
          "type": "uint8"
        },
        {
          "internalType": "uint8",
          "name": "y",
          "type": "uint8"
        },
        {
          "internalType": "string",
          "name": "newValue",
          "type": "string"
        }
      ],
      "name": "setMatrixNumber",
      "outputs": [],
      "stateMutability": "nonpayable",
      "type": "function"
    }
  ],
  "bytecode": "0x60806040523480156200001157600080fd5b5060005b601460ff168160ff161015620000e85760005b601460ff168160ff161015620000d1576040518060400160405280600781526020017f236666666666660000000000000000000000000000000000000000000000000081525060008360ff16601481106200008857620000876200019f565b5b601402018260ff1660148110620000a457620000a36200019f565b5b019080519060200190620000ba929190620000ef565b508080620000c8906200020a565b91505062000028565b508080620000df906200020a565b91505062000015565b506200029c565b828054620000fd9062000267565b90600052602060002090601f0160209004810192826200012157600085556200016d565b82601f106200013c57805160ff19168380011785556200016d565b828001600101855582156200016d579182015b828111156200016c5782518255916020019190600101906200014f565b5b5090506200017c919062000180565b5090565b5b808211156200019b57600081600090555060010162000181565b5090565b7f4e487b7100000000000000000000000000000000000000000000000000000000600052603260045260246000fd5b7f4e487b7100000000000000000000000000000000000000000000000000000000600052601160045260246000fd5b600060ff82169050919050565b60006200021782620001fd565b915060ff82036200022d576200022c620001ce565b5b600182019050919050565b7f4e487b7100000000000000000000000000000000000000000000000000000000600052602260045260246000fd5b600060028204905060018216806200028057607f821691505b60208210810362000296576200029562000238565b5b50919050565b6108cc80620002ac6000396000f3fe608060405234801561001057600080fd5b50600436106100365760003560e01c80635ad3a0a81461003b578063fe54b12914610059575b600080fd5b610043610075565b6040516100509190610577565b60405180910390f35b610073600480360381019061006e919061071b565b61017a565b005b61007d610279565b6000601480602002604051908101604052809291906000905b8282101561017157838260140201601480602002604051908101604052809291906000905b8282101561015e5783820180546100d1906107b9565b80601f01602080910402602001604051908101604052809291908181526020018280546100fd906107b9565b801561014a5780601f1061011f5761010080835404028352916020019161014a565b820191906000526020600020905b81548152906001019060200180831161012d57829003601f168201915b5050505050815260200190600101906100bb565b5050505081526020019060010190610096565b50505050905090565b601460ff168360ff1611158015610195575060008260ff1610155b6101d4576040517f08c379a00000000000000000000000000000000000000000000000000000000081526004016101cb90610847565b60405180910390fd5b601460ff168360ff16111580156101ef575060008360ff1610155b61022e576040517f08c379a000000000000000000000000000000000000000000000000000000000815260040161022590610847565b60405180910390fd5b8060008460ff166014811061024657610245610867565b5b601402018360ff166014811061025f5761025e610867565b5b0190805190602001906102739291906102a7565b50505050565b6040518061028001604052806014905b61029161032d565b8152602001906001900390816102895790505090565b8280546102b3906107b9565b90600052602060002090601f0160209004810192826102d5576000855561031c565b82601f106102ee57805160ff191683800117855561031c565b8280016001018555821561031c579182015b8281111561031b578251825591602001919060010190610300565b5b5090506103299190610355565b5090565b6040518061028001604052806014905b606081526020019060019003908161033d5790505090565b5b8082111561036e576000816000905550600101610356565b5090565b600060149050919050565b600081905092915050565b6000819050919050565b600060149050919050565b600081905092915050565b6000819050919050565b600081519050919050565b600082825260208201905092915050565b60005b838110156103ec5780820151818401526020810190506103d1565b838111156103fb576000848401525b50505050565b6000601f19601f8301169050919050565b600061041d826103b2565b61042781856103bd565b93506104378185602086016103ce565b61044081610401565b840191505092915050565b60006104578383610412565b905092915050565b6000602082019050919050565b600061047782610392565b610481818561039d565b935083602082028501610493856103a8565b8060005b858110156104cf57848403895281516104b0858261044b565b94506104bb8361045f565b925060208a01995050600181019050610497565b50829750879550505050505092915050565b60006104ed838361046c565b905092915050565b6000602082019050919050565b600061050d82610372565b610517818561037d565b93508360208202850161052985610388565b8060005b85811015610565578484038952815161054685826104e1565b9450610551836104f5565b925060208a0199505060018101905061052d565b50829750879550505050505092915050565b600060208201905081810360008301526105918184610502565b905092915050565b6000604051905090565b600080fd5b600080fd5b600060ff82169050919050565b6105c3816105ad565b81146105ce57600080fd5b50565b6000813590506105e0816105ba565b92915050565b600080fd5b600080fd5b7f4e487b7100000000000000000000000000000000000000000000000000000000600052604160045260246000fd5b61062882610401565b810181811067ffffffffffffffff82111715610647576106466105f0565b5b80604052505050565b600061065a610599565b9050610666828261061f565b919050565b600067ffffffffffffffff821115610686576106856105f0565b5b61068f82610401565b9050602081019050919050565b82818337600083830152505050565b60006106be6106b98461066b565b610650565b9050828152602081018484840111156106da576106d96105eb565b5b6106e584828561069c565b509392505050565b600082601f830112610702576107016105e6565b5b81356107128482602086016106ab565b91505092915050565b600080600060608486031215610734576107336105a3565b5b6000610742868287016105d1565b9350506020610753868287016105d1565b925050604084013567ffffffffffffffff811115610774576107736105a8565b5b610780868287016106ed565b9150509250925092565b7f4e487b7100000000000000000000000000000000000000000000000000000000600052602260045260246000fd5b600060028204905060018216806107d157607f821691505b6020821081036107e4576107e361078a565b5b50919050565b600082825260208201905092915050565b7f4d41545249583a204f7574206f6620626f756e64730000000000000000000000600082015250565b60006108316015836107ea565b915061083c826107fb565b602082019050919050565b6000602082019050818103600083015261086081610824565b9050919050565b7f4e487b7100000000000000000000000000000000000000000000000000000000600052603260045260246000fdfea2646970667358221220b0cb98cd2164724ab5de6a520b1a3b1e3c03af24b4ce0900c96ce4fd7592ff2564736f6c634300080d0033",
  "immutableReferences": {},
  "source": "//SPDX-License-Identifier: MIT\npragma solidity ^0.8.0;\n \ncontract Matrix {\n    uint8 private constant SIZE = 20; \n    string[SIZE][SIZE] private matrix;\n \n    constructor() {\n        for(uint8 i = 0; i < SIZE; i++){\n            for(uint8 j = 0; j < SIZE; j++){\n                matrix[i][j] = \"#ffffff\";\n            }\n        }\n    }\n \n    function getMatrix() external view returns(string[SIZE][SIZE] memory){\n        return matrix;\n    }\n \n    function setMatrixNumber(uint8 x, uint8 y, string memory newValue) external {\n        require(x <= SIZE && y >= 0, \"MATRIX: Out of bounds\");\n        require(x <= SIZE && x >= 0, \"MATRIX: Out of bounds\");\n        matrix[x][y] = newValue;\n    }\n}\n",
  "sourcePath": "/Users/ferrancasals/Git/web3-place/truffle/contracts/matrix.sol",
  "compiler": {
    "name": "solc",
    "version": "0.8.13+commit.abaa5c0e.Emscripten.clang"
  },
  "schemaVersion": "3.4.6",
  "updatedAt": "2022-04-18T08:54:06.798Z",
  "networkType": "ethereum",
  "devdoc": {
    "kind": "dev",
    "methods": {},
    "version": 1
  },
  "userdoc": {
    "kind": "user",
    "methods": {},
    "version": 1
  }
}